:020000040800F2
:1000000098160020CD010008010A0008C506000866
:10001000F909000811030008D50E000800000000CF
:100020000000000000000000000000002B0C000891
:100030009504000800000000950A0008570D00080C
:100040004F130008E7010008E7010008710B0008E2
:10005000E7010008E7010008E7010008E7010008E0
:10006000E7010008E7010008E7010008E7010008D0
:10007000E7010008E7010008E7010008E7010008C0
:10008000E7010008E7010008E7010008E7010008B0
:10009000E7010008E7010008E7010008E7010008A0
:1000A000E7010008E7010008E7010008E701000890
:1000B000E7010008E7010008E7010008E701000880
:1000C000E7010008E7010008E7010008E701000870
:1000D000E7010008E7010008E7010008E701000860
:1000E000E7010008E7010008E7010008E701000850
:1000F000E7010008E7010008E7010008E701000840
:10010000E7010008E7010008E7010008E70100082F
:10011000E7010008E7010008E7010008B90D000841
:10012000E7010008E7010008E7010008E70100080F
:1001300000F002F800F03AF80AA090E8000C8244BF
:100140008344AAF10107DA4501D100F02FF8AFF29C
:10015000090EBAE80F0013F0010F18BFFB1A43F0A5
:10016000010318473812000058120000103A24BF4B
:1001700078C878C1FAD8520724BF30C830C144BF0C
:1001800004680C607047000000230024002500264E
:10019000103A28BF78C1FBD8520728BF30C148BFEA
:1001A0000B6070471FB51FBD10B510BD00F033F8D0
:1001B0001146FFF7F7FF01F0CBF800F051F803B458
:1001C000FFF7F2FF03BC00F059F800000948804730
:1001D00009480047FEE7FEE7FEE7FEE7FEE7FEE729
:1001E000FEE7FEE7FEE7FEE704480549054A064B41
:1001F00070470000590D00083101000898100020D8
:1002000098160020981200209812002070470000D5
:10021000704770477047754600F02CF8AE460500F1
:100220006946534620F00700854618B020B5FFF711
:10023000DBFFBDE820404FF000064FF000074FF015
:1002400000084FF0000B21F00701AC46ACE8C009F4
:10025000ACE8C009ACE8C009ACE8C0098D467047FD
:1002600010B50446AFF300802046BDE81040FFF70C
:10027000A6BF000000487047341000200149182034
:10028000ABBEFEE726000200704700002DE9F041FA
:1002900006461B48864231D100F008FE00F09AFF66
:1002A00000252F4640F20441384600F0F3FF0121BB
:1002B000284600F011FF40F20441384600F0EAFF02
:1002C00010481149086000240BE00F4951F8241030
:1002D0000E4A881800F01EF80B4A611C42F82100F3
:1002E000641CFF2CF1DD40F20441384600F0EEFFC3
:1002F00040F20441384600F0CDFF00BFBDE8F08178
:1003000000140040443322111C00002004030101AA
:1003100000BFFEE701460248016000687047000028
:100320000030024070B506460C46154600BF4FF03F
:10033000E020006900F4803030B121480068401CA2
:100340001F49086000F006FD1D49306809688842B1
:100350000AD81C480068401C1A4908601848006800
:100360006430306000F04AFB164920680968884212
:100370000AD815480068401C13490860206800F539
:100380007A70206000F052FC0F49286809688842A2
:1003900009D80E480068401C0C49086028683C30A9
:1003A000286000F02CFB00E0C1E705480068084920
:1003B00009688842F8D300200549086070BD000034
:1003C0000000002004000020080000200C00002095
:1003D0001400002029B1064A52680243044B5A60B7
:1003E00004E0034A52688243014B5A6070470000A0
:1003F000002004E000F0805111B10349086001E0E1
:1004000002494860704700000404024000000240B6
:1004100021B1026842F00102026004E002684FF676
:10042000FE731A400260704701460020002201F06E
:10043000805313B1054B1A6801E0054B1A6802EAB4
:1004400001030BB1012000E00020704700040240CE
:100450000000024010B50022026847F6F0739A438C
:100460000C6A8B6823430C6923434C6923438C69D2
:100470002343CC6923434C6A23438C6A23431A43A6
:100480000260CB6843600B6883604B68C36010BD3B
:100490004160704770470000014611B1012906D143
:1004A00002E004A000F01AF806A000F017F809A076
:1004B00000F014F8544D31363337204572726F72A4
:1004C00021000000544D31383033204572726F7274
:1004D000210000004572726F7221000000BFFEE72C
:1004E0000549096821F01001034A116011460968A5
:1004F00001431160704700000020024001460020C7
:10050000034A106800F0380008431060704700008C
:100510000020024010B50021124800F0C9F838B19F
:10052000002211460F4800F085FB0F48FFF7AEFE92
:1005300001210C4800F0BCF830B10022012109482B
:1005400000F078FB00F006FB0221064800F0B0F84E
:1005500038B100220221034800F06CFB0020FFF7B5
:100560009BFF10BD10000020001400402DE9F04159
:10057000024600250026002000230024002791F8D1
:1005800003C00CF00F0591F803C00CF0100CBCF187
:10059000000F03D091F802C04CEA050591F800C0A5
:1005A000BCF1000F31D0146800202BE04FF0010C9B
:1005B0000CFA00F3B1F800C00CEA03069E4220D109
:1005C00083004FF00F0C0CFA03F7BC4305FA03FC51
:1005D0004CEA040491F803C0BCF1280F06D14FF097
:1005E000010C0CFA00FCC2F814C00AE091F803C038
:1005F000BCF1480F05D14FF0010C0CFA00FCC2F819
:1006000010C0401C0828D1D31460B1F800C0BCF160
:10061000FF0F34DD546800202EE000F1080C4FF08D
:10062000010808FA0CF3B1F800C00CEA03069E4278
:1006300021D183004FF00F0C0CFA03F7BC4305FAED
:1006400003FC4CEA040491F803C0BCF1280F05D167
:1006500000F1080C08FA0CF8C2F8148091F803C0F5
:10066000BCF1480F07D100F1080C4FF0010808FA5F
:100670000CF8C2F81080401C0828CED35460BDE8A6
:10068000F0814FF480320A43826181618261826924
:100690008269704702460020D3680B400BB10120ED
:1006A00000E0002070470AB1016100E0416170473D
:1006B000024601238B401068184008B101207047A2
:1006C0000020FCE700BFFEE74CF6CC400149086083
:1006D00070470000003000404AF6AA200149086037
:1006E000704700000030004001494860704700003A
:1006F0000030004001498860704700000030004031
:1007000001490860704700000030004010B500F05B
:1007100037F900F04FF800F033F800F045F800F03A
:1007200017F800F039F900F063F800F07FF810B91D
:1007300001A0FFF7D3FE10BD496E69745F535049A5
:100740005F573235517878204572726F7221000000
:1007500008B54FF48070ADF8000010208DF803004C
:1007600002208DF8020069460448FFF7FFFE4FF4AF
:1007700080710248FFF785FF08BD000000100140AE
:1007800010B5012000F0D2F945F25550FFF7B8FF3F
:100790000520FFF7A9FF4FF41C70FFF7ABFFFFF731
:1007A0009BFFFFF791FF10BD10B54FF4407000F0B4
:1007B00061F910BD10B50220FFF7A0FE1020FFF771
:1007C0008FFE0121412000F067F90121064800F069
:1007D00073F9012141F21D0000F07EF90121034867
:1007E000FFF7F8FD10BD000020000010000310000E
:1007F00008B5012000F080F9012000F045F94FF420
:10080000807000F09FF9012000F096F9002000F0C0
:100810003BF903208DF800000E208DF80100012027
:100820008DF80300684600F0EDF808BD10B59CB0E7
:1008300000248020ADF86C0018208DF86F00032094
:100840008DF86E001BA94A48FFF790FE80214848AA
:10085000FFF717FF4020ADF86C0018208DF86F00EF
:1008600003208DF86E001BA94148FFF77FFE402151
:100870003F48FFF706FF2020ADF86C0018208DF8E8
:100880006F0003208DF86E001BA93948FFF76EFE3C
:1008900020213748FFF7F5FE1020ADF86C008DF8E9
:1008A0006F0003208DF86E001BA93148FFF75EFE34
:1008B00010212F48FFF7E5FE012210212C48FFF7F9
:1008C000F2FE0020ADF858004FF48270ADF85A00E7
:1008D0000020ADF85C00ADF85E00ADF860004FF4AC
:1008E0000070ADF862000020ADF86400ADF866005D
:1008F000ADF8680016A91F4800F079F901211D48DC
:1009000000F052F91B480C300B901B480C90002053
:100910000D900E900F90802010900020119012905A
:1009200013904FF400501490002015900BA9134819
:10093000FFF790FD0F480C3000900F4801901020F9
:1009400002900020039004908020059000200690E3
:1009500007904FF400500990002008900A906946D3
:1009600006481430FFF776FD012420461CB010BD68
:1009700000080140003001401C0000201C00024023
:1009800040F2CF204FF0E02148610846006940F076
:1009900007000861704700001FB50020ADF8060091
:1009A00048F69F40ADF8040042F20F70ADF8080021
:1009B00001A9104800F028FA01210E4800F00FFAB2
:1009C00001210C4800F008FA01221146094800F004
:1009D00012FA37208DF8000000208DF802000F2059
:1009E0008DF8010001208DF80300684600F00AF838
:1009F0001FBD00000014004000BFFEE770477047B5
:100A00007047000070B5002100230F22C47804B3A2
:100A1000154C246804F4E064C4F5E064210AC1F1D3
:100A20000403CA40447804FA03F184781440214353
:100A300009010E4C0678A155047804F01F05012425
:100A4000AC4005786D11AD0005F1E025C5F8004119
:100A500009E0047804F01F050124AC40044D067839
:100A6000761145F8264070BD0CED00E000E400E092
:100A700080E100E002490143024A11607047000032
:100A80000000FA050CED00E0014908627047000023
:100A900000000E427047000029B1064A5269024325
:100AA000044B5A6104E0034A52698243014B5A6184
:100AB000704700000010024029B1064AD269024383
:100AC000044BDA6104E0034AD2698243014BDA61E4
:100AD000704700000010024029B1064A92690243A3
:100AE000044B9A6104E0034A92698243014B9A6184
:100AF000704700000010024000210B4A11700A4AA2
:100B0000203A82F82010012802D0042808D103E0FE
:100B10000121054A117004E00521034A117000E02B
:100B200000BF00BF7047000020100240014908606C
:100B3000704700008004424201490860704700008D
:100B40003C0442420249096A0143014A116270476A
:100B50000010024010B50021022000F015F810BD71
:100B6000024909888143014A1180704704280040E6
:100B700010B501221146034800F05CF80220FFF78F
:100B8000EFFF10BD1000002029B1064A1288024371
:100B9000044B1A8004E0034A12888243014B1A80F6
:100BA000704700000028004021B1028842F0400256
:100BB000028004E002884FF6BF731A40028070473B
:100BC0001AB183880B43838002E083888B43838040
:100BD00070470246002013890B400BB1012000E052
:100BE000002070470146888970478181704710B5A1
:100BF0000022028802F441520B884C8823438C88DF
:100C00002343CC8823430C8923434C8923438C8979
:100C10002343CC8923431A430280838B4FF2FF7412
:100C2000234083830B8A038210BD704710B5FFF702
:100C300053FD10BD10B50346012A05D101248C4097
:100C400018682043186009E02AB901248C4018680C
:100C5000A043186002E002A0FFF740FC10BD0000B6
:100C6000466C6167204572726F72210010B500F00A
:100C700001F810BD0CB500200190009033480068C9
:100C800040F480303149086000BF3048006800F40B
:100C9000003000900198401C0190009818B901980C
:100CA000B0F5A06FF1D12948006800F4003010B110
:100CB0000120009001E0002000900098012843D11D
:100CC0002348006840F01000214908600846006889
:100CD00020F0030008600846006840F00200086049
:100CE0001A48406819494860084640684860084604
:100CF000406840F4806048600846406820F47C10FA
:100D000048600846406840F4E810486008460068BB
:100D100040F08070086000BF0C48006800F0007070
:100D20000028F9D00948406820F0030007494860CE
:100D30000846406840F00200486000BF0348406831
:100D400000F00C000828F9D10CBD00000010024092
:100D5000002002407047704710B51348006840F00B
:100D600001001149086008464068104908400E49D2
:100D70004860084600680E4908400B49086008466C
:100D8000006820F4802008600846406820F4FE00D7
:100D900048604FF41F008860FFF768FF4FF0006065
:100DA0000449086010BD0000001002400000FFF878
:100DB000FFFFF6FE08ED00E010B501220021044817
:100DC000FFF738FF0121034800F006F810BD0000CE
:100DD0001000002000140040CA430282704721B175
:100DE000028842F00102028004E002884FF6FE739E
:100DF0001A40028070471AB183890B43838102E055
:100E000083898B4383817047002202881D4B98425F
:100E10000ED01D4B98420BD0B0F1804F08D01B4B29
:100E2000984205D01A4B984202D01A4B984204D1EE
:100E30004FF68F731A404B881A43174B984207D0CE
:100E4000164B984204D04FF6FF431A40CB881A4302
:100E500002808B8883850B8803850A4B98420BD0D0
:100E6000094B984208D00E4B984205D00D4B984242
:100E700002D00D4B984201D10B7A03860123838265
:100E800070470000002C0140003401400004004085
:100E900000080040000C004000100040001400401A
:100EA00000400140004401400048014010B54FF4AB
:100EB00080710748FFF7EEFB08B9012000E0002031
:100EC000044622464FF480710148FFF7ECFB10BD49
:100ED0000010014000BFFEE7F8B504460D46164677
:100EE000012204214048FFF7A5FE00200090A5B98B
:100EF000012202213D48FFF763FE3D4800EB06203A
:100F00003C49C863A1B23B483030FFF7C1FA012128
:100F100038483030FFF77CFA20E0012202213348C4
:100F2000FFF74EFE012211463048FFF749FE3149D6
:100F3000C1F83CD0A1B22F483030FFF7A9FAA1B2D6
:100F40002C481C30FFF7A4FA01212A483030FFF763
:100F50005FFA012127481C30FFF75AFA00BF4FF40F
:100F60000070FFF761FA0028F9D04FF40070FFF726
:100F700041FA8DB900BF02211C48FFF72AFE002864
:100F8000F9D0002202211948FFF71AFE0021194862
:100F90003030FFF73DFA21E000BF02211348FFF790
:100FA00018FE0028F9D000BF01211048FFF711FEFC
:100FB0000028F9D1002202210C48FFF701FE00228F
:100FC00001210A48FFF7FCFD00210A483030FFF7F5
:100FD0001FFA002107481C30FFF71AFA01220421EA
:100FE0000148FFF727FEF8BD100000200030014047
:100FF0001C000020000002402DE9F04704460D4689
:1010000016461F46DDF82090002210213048FFF7D9
:101010004AFB21462F48FFF7E8FD00BF02212D487B
:10102000FFF7D7FD0028F9D02A48FFF7DBFD00BF06
:1010300001212848FFF7CDFD0028F9D1002D21DB43
:101040004FF0040818E04FEAC80045FA00F081B2FA
:101050002048FFF7CAFD00BF02211E48FFF7B9FD77
:101060000028F9D01B48FFF7BDFD00BF012119483A
:10107000FFF7AFFD0028F9D1A8F10100B0F1000899
:10108000E1D100BF0B2C14D100211248FFF7ADFDB8
:1010900000BF02210F48FFF79CFD0028F9D00D4842
:1010A000FFF7A0FD00BF01210A48FFF792FD0028CD
:1010B000F9D126B14A4639463046FFF70DFF0122E5
:1010C00010210348FFF7EFFA0120BDE8F087000088
:1010D00000080140003001402DE9F84305460C4668
:1010E0000026280A0604082C52D9102C28D92709D2
:1010F0004FF0000915E0002002230246411E009037
:101100000620FFF779FF00203102022302460090FB
:10111000D820FFF771FF06F5803600F0A1F809F13D
:101120000109B945E7D325F0FF0000EB072804F0DB
:101130000F0020B104F00F014046FFF7CDFF46E05D
:10114000C5F30310082805D9C5F303104FF48051E7
:1011500001FB0066002002230246411E009006208B
:10116000FFF74AFF0020310202230246009052207E
:10117000FFF742FF25F07F0000F1800700F070F8D4
:10118000A4F1080018B101463846FFF7A5FF1EE09C
:10119000C5F303104FF4805101FB0066002714E0F3
:1011A000002002230246411E00900620FFF724FF84
:1011B000002031020223024600902020FFF71CFF8E
:1011C00006F5805600F04CF87F1CA742E8D3BDE836
:1011D000F883000008B5002001230422411E00907E
:1011E0009F20FFF709FF1A48006800BA000A194952
:1011F0000860002001230C22411E00904B20FFF7C5
:10120000FBFE1348406800BA1249486010488068E5
:1012100001BA10488160002001230422411E009081
:10122000AB20FFF7E9FE0A48006800BA00F00F00A3
:10123000094931F81000074988810846808900046F
:101240000861002204210548FFF7F4FC08BD0000F6
:101250001C0000201C1000207C130008100000203F
:1012600038B50B48046801200949086007E00020F0
:1012700001231A46411E00900520FFF7BDFE0448D9
:10128000007800F001000028F1D10148046038BD69
:101290001C000020F8B504460E460025FFF7E0FFCD
:1012A000200A0504C4F303104FF4805101FB0055DC
:1012B00004F00F00091101FB00550020B2B2290211
:1012C000012300900B20FFF797FEF8BDF8B5054607
:1012D0000E460024FFF7C4FF280A0404C5F30310D8
:1012E0004FF4805101FB004405F00F00091101FB90
:1012F0000044002714E0002002230246411E009013
:101300000620FFF779FE210200234FF480720220AD
:101310000097FFF771FE04F58074FFF7A1FF7F1CB3
:10132000B7EB162FE7D3F0B280B1002002230246BC
:10133000411E00900620FFF75FFEF2B2210200235B
:1013400002200097FFF758FEFFF78AFFF8BD7047AD
:101350000EB5642002904FF47A7001903C2000900A
:10136000FFF7D4F908E0FEF751FF6A4601A902A889
:10137000FEF7D8FFFFF7CEF8F5E700000200040003
:10138000080010002000400080000001000200045E
:10139000000100100080000000000100BC130008E4
:1013A000000000201C0000006C010008D813000899
:1013B0001C0000207C1600008801000800000000CE
:1013C000000000000000000000000000000000001D
:0813D000000000000000000015
:0400000508000131BD
:00000001FF
